:040000000128EF2FB5
:100A24001525212508006A30210099009A019801B2
:100A34000800FE0012001E00FE0B1C2D00342200D4
:100A44008C01FF3021008C001F3023008C00240017
:100A54008C0122008D0121008D0123008D012400D1
:100A64008D012100951722009D019E010800563436
:100A74006134723469346134623469346C34653499
:100A8400203469346E3474343A34203400345034AD
:100A940072346F347634613420344C344334443407
:100AA40000342000A0001430200203180800632D35
:100AB4002017712D14305F2D5430FD007D08A007E0
:100AC400712D7C08003A0319712D013A03195A2D2E
:100AD400033A03195C2D013A03195E2D712DA017F9
:100AE400F50120089F250800122500308F26FC01FF
:100AF400003053254930FC008530FD00D525FC012C
:100B0400FC0A003053253930FC008530FD00D52522
:100B140022302000A0000030A1000230AC002C08DC
:100B2400A200662782302000AD00DD30AC00AC0BA3
:100B3400992DAD0B992D0032812DFA007A08F6001B
:100B44000430F636890BA32D7608F7007708F800F1
:100B54007A080F39F6007608F9007508031DB52DDB
:100B640020000D12B72D20000D1620000D170D08C2
:100B7400F0397804F6007608FB007B088D0000004D
:100B840020000D13000020000D170D08F039790422
:100B9400F6007608FB007B088D00000020000D1392
:100BA40000004E2608007C0884007D0885001200A1
:100BB400031908007C0884007D0885001200253A8A
:100BC400031D012E0130FC070030FD3D7C0884002C
:100BD4007D0885000008D03E2000A0002008A10068
:100BE400A11BFD2D2108803A783E0318FD2DF50147
:100BF400F50A2108082EF501F50A25309F25F5018F
:100C0400F50A7C0884007D08850000089F250130D2
:100C1400FC070030FD3DD52D0C34123412340C3455
:100C24000034003400340034003404340E341F34EF
:100C34000E340434003400340434043404340434EE
:100C44001F340E34043400340A34153411340A3495
:100C540004340034003400340A341F341F340E3496
:100C640004340034003400340034003400340034DC
:100C740000340034003400340034003400340034D0
:100C840000340034003400340034003400340034C0
:100C94000034003400340034F4010F30F0007008E4
:100CA40021008D0420008D160D1220000D17200048
:100CB4000D08F0007008F4007408F0000330F035FB
:100CC400FF3E031D612E7035F1007108F400200011
:100CD4000D13000020000D1720000D08F00070080F
:100CE400F3000F30F0007008F30574087304F0008B
:100CF4007008F40074088039F0007008F2002000D5
:100D04000D1300007208031D572E20008D12F030C1
:100D1400F000700821008D0508002000A000273095
:100D2400FD00F530FC00FC0B952EFD0B952EF030EC
:100D3400FC007C0821008D050D130D128D12F0307E
:100D4400FC007C0820008D050D138D120D1220006F
:100D54000D178D14000020000D1300004E26F50120
:100D640028309F25F501200020080C389F25F50127
:100D740040309F252000A1014030210203180800C3
:100D8400F501F50A2108A03E8600870101089F2588
:100D94000130FC007C082000A107BE2EF601F31FE1
:100DA400DA2EF209F309F20A0319F30AF601F60A34
:100DB400F11FE12EF009F109F00A0319F10A700894
:100DC40071040319082FF501F50AF11BF32E013004
:100DD400F035F10D890BEA2E0130F4007408F507A3
:100DE400E72E71087302031DF92E70087202031CAA
:100DF400FF2E7008F2027108F33B0130F136F00C5B
:100E0400890B002F0130F502031DF32E7608031918
:100E1400102FF209F309F20A0319F30A7308F10017
:100E24007208F0000800F601F11F1F2FF009F10904
:100E3400F00A0319F10AF601F60AF31F2A2FF20940
:100E4400F309F20A0319F30A0130F4007408F606F0
:100E5400F701F801700871040319592FF501F50A17
:100E6400F11B3E2F0130F035F10D890B352F013088
:100E7400F4007408F507322F0130F735F80D890BAB
:100E84003F2F71087302031D492F70087202031C5F
:100E9400502F7008F2027108F33B77140130F136D9
:100EA400F00C890B512F0130F502031D3E2F7608FB
:100EB4000319612FF709F809F70A0319F80A7808E2
:100EC400F1007708F00008002E308600003087001B
:100ED40023308400003085000530FC0016001A0021
:100EE400FC0B702F04302000AA000030AB00A801D6
:100EF400A901A11F872FF501F50A2D309F25200098
:100F0400A009A109A00A0319A10A200821040319B0
:100F1400B02F0A30F0000030F1002108F30020085F
:100F2400F200D0267008FC0020002A08233E860028
:100F340087017C0881000A30F0000030F1002108AC
:100F4400F3002008F200152771082000A1007008A2
:100F5400A000FF30AA07FF30AB3D872F220A0319F8
:100F6400B82FC02F0130A8070030A93D2808233E20
:100F7400860087010108031DD02FB42F2208FC002E
:100F8400FD01FC1BFD03FC09FD09FC0A0319FD0A14
:100F94007C08053EA80000307D3DA9002908AB006F
:100FA4002808AA002B08803AFC0080307C02031D2C
:100FB400DD2F05302A0203180800F501F50A200088
:100FC4002A08233E860087010108303E9F25013010
:100FD4002000AA070030AB3DD42FAE01AF01B00111
:100FE400B101B2010E30840086308500A030860045
:0C0FF4000030870040301B252000762DC7
:020000040001F9
:04000E00E4FFFFDF2D
:00000001FF
