:040000000128ED2FB7
:10094E00B124DC24C424080021001C08F1001B087B
:10095E00F00008006230210099009A019801080009
:10096E00FE0012001E00FE0BB82C003403102100F6
:10097E009D1C03140030093D0800013021009D002C
:10098E0050309E009B019C010800F1007108F000A0
:10099E00F00DF00D21001D087006833970069D00C4
:1009AE001D14003221009D14080022008C01FF301E
:1009BE0021008C001F3023008C0024008C012200AB
:1009CE008D01803021008D00803023008D002400A9
:1009DE008D012100951722009D019E010800F40152
:1009EE00F501701CFE2C7208F4077308F53D0130FA
:1009FE00F235F30D890BFF2C0130F136F00C890B1B
:100A0E00042D70087104031DF82C7508F10074088C
:100A1E00F00008002000A000143020020318080087
:100A2E00212D20172F2D14301D2D5430FD007D0843
:100A3E00A0072F2D7C08003A03192F2D013A031918
:100A4E00182D033A03191A2D013A03191C2D2F2DB7
:100A5E00A017F50120085925080054346534723466
:100A6E006D346F346D346534743472346F342034B5
:100A7E00503449344334003420342034203420346C
:100A8E0020342034203420342034203400345434A4
:100A9E0065346D3470343A342034003425343034B7
:100AAE0043340034FA007A08F6000430F636890B27
:100ABE005D2D7608F7007708F8007A080F39F600F2
:100ACE007608F9007508031D6F2D20000D12712D8B
:100ADE0020000D1620000D170D08F0397804F600D1
:100AEE007608FB007B088D0020000D1320000D17EB
:100AFE000D08F0397904F6007608FB007B088D00AE
:100B0E0020000D13C42508007C0884007D08850094
:100B1E001200031908007C0884007D08850012006D
:100B2E00253A031DB72D0130FC070030FD3D7C0832
:100B3E0084007D0885000008D03E2000A00020081B
:100B4E00A100A11BB32D2108803A783E0318B32DC6
:100B5E00F501F50A2108BE2DF501F50A25305925B6
:100B6E00F501F50A7C0884007D08850000085925EA
:100B7E000130FC070030FD3D8B2DF4010F30F000ED
:100B8E00700821008D0420008D160D1220000D1707
:100B9E0020000D08F0007008F4007408F000033017
:100BAE00F035FF3E031DD72D7035F1007108F400AE
:100BBE0020000D1320000D1720000D08F000700806
:100BCE00F3000F30F0007008F30574087304F000A2
:100BDE007008F40074088039F0007008F2002000EC
:100BEE000D137208031DCD2D20008D12F030F00074
:100BFE00700821008D0508002000A0001430FD00B3
:100C0E007930FC00FC0B092EFD0B092E0032F03062
:100C1E00FC007C0821008D050D130D128D12F03095
:100C2E00FC007C0820008D050D138D120D12200086
:100C3E000D178D1420000D13C425F50128305925EC
:100C4E00F501200020080C385925F50140305925B2
:100C5E002000A1014030210203180800F501F50A19
:100C6E002108A03E86008701010859250130FC00AD
:100C7E007C082000A107312E0C34123412340C34AF
:100C8E000034003400340034003404340E341F3485
:100C9E000E34043400340034043404340434043484
:100CAE001F340E34043400340A34153411340A342B
:100CBE0004340034003400340A341F341F340E342C
:100CCE000434003400340034003400340034003472
:100CDE000034003400340034003400340034003466
:100CEE000034003400340034003400340034003456
:100CFE000034003400340034F601F31F8D2EF20957
:100D0E00F309F20A0319F30AF601F60AF11F942EFB
:100D1E00F009F109F00A0319F10A700871040319B8
:100D2E00BB2EF501F50AF11BA62E0130F035F10DA3
:100D3E00890B9D2E0130F4007408F5079A2E710868
:100D4E007302031DAC2E70087202031CB22E7008C3
:100D5E00F2027108F33B0130F136F00C890BB32E21
:100D6E000130F502031DA62E76080319C32EF209D3
:100D7E00F309F20A0319F30A7308F1007208F0007E
:100D8E000800A724C42400300326FC0100301125DE
:100D9E003430FC008530FD008B250030CC24BD2482
:100DAE00003A0319D62EAB2471082000B400700847
:100DBE00B3003408F1003308F0003230F200003096
:100DCE00F300F62470082000AC007108AD000A3064
:100DDE00AD36AC0C890BEF2E2C08B3002D08B400E9
:100DEE00FC01FC0A003011254E30FC008530FD0060
:100DFE008B254330FC008530FD008B252000340808
:100E0E00A1003308A0000230AC002C08A200642719
:100E1E005530FC008530D22EF601F11F1D2FF00942
:100E2E00F109F00A0319F10AF601F60AF31F282F49
:100E3E00F209F309F20A0319F30A0130F4007408F7
:100E4E00F606F701F801700871040319572FF50122
:100E5E00F50AF11B3C2F0130F035F10D890B332FC4
:100E6E000130F4007408F507302F0130F735F80D16
:100E7E00890B3D2F71087302031D472F70087202F4
:100E8E00031C4E2F7008F2027108F33B77140130E9
:100E9E00F136F00C890B4F2F0130F502031D3C2F5C
:100EAE00760803195F2FF709F809F70A0319F80AEC
:100EBE007808F1007708F00008002E308600003028
:100ECE00870023308400003085000530FC001600BA
:100EDE001A00FC0B6E2F04302000AA000030AB006D
:100EEE00A801A901A11F852FF501F50A2D3059255D
:100EFE002000A009A109A00A0319A10A20082104B3
:100F0E000319AE2F0A30F0000030F1002108F30073
:100F1E002008F20083267008FC0020002A08233ED9
:100F2E00860087017C0881000A30F0000030F10055
:100F3E002108F3002008F200132771082000A100F9
:100F4E007008A000FF30AA07FF30AB3D852F220AA4
:100F5E000319B62FBE2F0130A8070030A93D28086F
:100F6E00233E860087010108031DCE2FB22F2208D3
:100F7E00FC00FD01FC1BFD03FC09FD09FC0A031925
:100F8E00FD0A7C08053EA80000307D3DA900290819
:100F9E00AB002808AA002B08803AFC0080307C02A7
:100FAE00031DDB2F05302A0203180800F501F50A90
:100FBE0020002A08233E860087010108303E59256D
:100FCE0001302000AA070030AB3DD22FAE01AF0199
:100FDE00B001B101B201B301B401433084008630D7
:100FEE008500A0308600003087004030B7242000F6
:020FFE00C82EFB
:020000040001F9
:04000E00E4FFFFDF2D
:00000001FF
