:020000001228C4
:100008007E14803120007F08F0008B1A0B1D0D280C
:10001800572170082000FF007E1009001328FA01FC
:10002800B001B101B201B3012C30840081308500E8
:10003800203086000030870010304B217E102000D1
:1000480025285C210B1722008C150C1220000C1D92
:1000580053287A08B4003408B1000A30F10000309F
:10006800F2003108B400B5013408F3003508F40093
:10007800CF2071082000B6003608B3000A30F1001E
:100088000030F2003108B400B5013408F300350837
:10009800F4007E2071082000B6003608B0008C19E4
:1000A8005C288D0122008C150C1220003308622870
:1000B8008D0122008C110C1620003008203E86008D
:1000C800870101088D000130B4003408B2070A30F6
:1000D8003206031D74288D0122008C110C12630056
:1000E8001E307A060319FA0101302000B4003408E2
:1000F800FA072A28F701F21F8828F109F209F10AFC
:100108000319F20AF701F70AF41F9328F309F4090F
:10011800F30A0319F40A0130F5007508F706F80127
:10012800F901710872040319C228F601F60AF21BD4
:10013800A7280130F135F20D890B9E280130F50012
:100148007508F6079B280130F835F90D890BA828A2
:1001580072087402031DB22871087302031CB928BF
:100168007108F3027208F43B78140130F236F10C8E
:10017800890BBA280130F602031DA728770803194E
:10018800CA28F809F909F80A0319F90A7908F200DE
:100198007808F1000800F701F41FD928F309F409D9
:1001A800F30A0319F40AF701F70AF21FE028F10924
:1001B800F209F10A0319F20A7108720403190729EE
:1001C800F601F60AF21BF2280130F135F20D890B1F
:1001D800E9280130F5007508F607E6287208740268
:1001E800031DF82871087302031CFE287108F30226
:1001F8007208F43B0130F236F10C890BFF2801300C
:10020800F602031DF228770803190F29F309F409E8
:10021800F30A0319F40A7408F2007308F1000800DD
:1002280022008C01E73021008C00033023008C0071
:1002380024008C0122008D0121008D0123008D01F5
:1002480024008D012100951722009D019E010800C0
:100258003F3406345B344F3466346D347D340734B0
:100268007F346F3477347C3439345E347934713484
:1002780021001508C0391F389500833020009500EB
:100288008330F1007108B7000B118B160800FE00CF
:1002980012001E00FE0B4C2900343A302100990050
:1002A8009A01980108000B112000370895000800F2
:0802B800512114213C21080032
:020000040001F9
:04000E00E4FFFFDE2E
:00000001FF
