:040000000128FE2FA6
:100F5200B727BD27B2270800F000700822009900C9
:100F62000800A0302200980099010800603021009A
:100F720099009A019801080022008C01FB3021009F
:100F82008C001F3023008C0024008C0122008D0174
:100F9200FF3021008D00FE3023008D0024008D01E2
:100FA2002100951722009D019E010800A927B22762
:100FB200F2011F3072020318ED2F7208AD27A6301E
:100FC200F100F10BE22F00000130F1007108F2078D
:100FD2001F307202031CDE2F1E30F1007108F30075
:100FE2007308031DD92F7308AD27A630F100F10B4A
:0E0FF200F82F00000130F302F12F2000D72F5E
:020000040001F9
:04000E00E4FFFFDF2D
:00000001FF
