:040000000128F82FAC
:100CF6002000181408000B0C890C013908007D0827
:100D060020009500080020001108013908008F26F0
:100D1600C4269B26A52608007A30210099009A0150
:100D2600980108002000250897002408960008006E
:100D360021001508C0391438950020009501FD01E1
:100D46000B11080030302000980099013C309700C4
:100D5600B03096001708A5001608A40011107B26CF
:100D660008003F3406345B344F3466346D347D34CA
:100D760007347F346F3477347C3439345E347934D5
:100D8600713422008C01FC3021008C0023008C0180
:100D960024008C0122008D0121008D0123008D018C
:100DA60024008D012100951722009D019E01080057
:100DB600F601F31FE52EF209F309F20A0319F30A05
:100DC600F601F60AF11FEC2EF009F109F00A0319F3
:100DD600F10A700871040319132FF501F50AF11BC6
:100DE600FE2E0130F035F10D890BF52E0130F400A1
:100DF6007408F507F22E71087302031D042F70089C
:100E06007202031C0A2F7008F2027108F33B0130CC
:100E1600F136F00C890B0B2F0130F502031DFE2E67
:100E2600760803191B2FF209F309F20A0319F30ACC
:100E36007308F1007208F0000800F601F11F2A2F6E
:100E4600F009F109F00A0319F10AF601F60AF31F8F
:100E5600352FF209F309F20A0319F30A0130F400F7
:100E66007408F606F701F801700871040319642F77
:100E7600F501F50AF11B492F0130F035F10D890B0B
:100E8600402F0130F4007408F5073D2F0130F73587
:100E9600F80D890B4A2F71087302031D542F700831
:100EA6007202031C5B2F7008F2027108F33B771481
:100EB6000130F136F00C890B5C2F0130F502031D71
:100EC600492F760803196C2FF709F809F70A031951
:100ED600F80A7808F1007708F00008008A269B26B1
:100EE600A5268626003A03198C2F20001110013002
:100EF600F9007908A1070A302106031D8B2FA101ED
:100F06000130F9007908FC073C307C060319FC0126
:100F160095260A30F0000030F1007C08F900FA014D
:100F26007908F2007A08F30020277008FB007B0896
:100F36002000A0000A30F0000030F1007C08F90023
:100F4600FA017908F2007A08F300DB267008FB0044
:100F56007B082000A2007E26003A0319742F0B118D
:100F6600EA2F20008D0122000C148C10200020088E
:100F7600B43E840086300318013E850000088D00CB
:100F8600A301A30AF62F8D0122000C108C14200059
:100F96002208B43E840086300318013E850000080E
:100FA60080388D000230F9007908A300F62F8D01F4
:100FB60022000C108C1020002108B43E84008630DC
:100FC6000318013E850000088D00A301F62F2000BE
:100FD6002308003A0319B42F013A0319C62F033A1E
:100FE6000319DA2FF62F8226742FFC01FD01A001CA
:0A0FF600A101A201A3012000712F48
:020000040001F9
:04000E00E4FFFFDF2D
:00000001FF
