:020000001D28B9
:100008007E14803120007F08F1002100911E112804
:100018002000911E1128E22018282100111E1828FE
:100028002000111E18288F2071082000FF007E1064
:1000380009001E28FA01FB012030840000308500E9
:1000480013302F214321B7007E102000FD284934AA
:100058006E34733465347234693473346334693498
:10006800203473347434723469346E3467346134D0
:100078000A340D3400344534633468346F34203422
:100088005234783454347834203450344934433436
:100098000A340D340034F3002000360803195028C0
:1000A8002100111A5B28730823009A006F28111287
:1000B8007308F2007B08283E8600870172088100D9
:1000C8000130F2007208FB0708307B020318FB01BD
:1000D80001302000B602210011160800F3017A0849
:1000E800031973282100911220003108203E860050
:1000F80087010108F2007208F3000130F20072086B
:10010800B107083031020318B1010130FA022100A9
:100118009116730808000830200036020318A92831
:100128003208283E86008701010823009A00013022
:10013800F00070082000B207083032020318B2013C
:100148000130F0007008B6070800210011120800FD
:100158007730F70077082000B3007608F8007508B4
:10016800F700F50A0319F60A77088400780885006D
:100178000008F90079082000B400340803190800C1
:1001880034083B21B1282100911211124930230073
:100198009F0098309D0026309E00A0309B000130C3
:1001A8009C00FB012000B2010830F2007208B60082
:1001B800B001B101FA0121009116080023009D1C2D
:1001C800E7281D121D161908F00020003008203EEF
:1001D80086008701700881000130F0007008B007C0
:1001E800083030020318B0010130F0007008FA0737
:1001F80008003F21C7208B170B173F30F5008030D0
:10020800F600AC202B30F5008030F600AC207A08E0
:10021800031D062972202000B5003508B7003708ED
:10022800013E4F200B2922008C01FF3021008C0059
:1002380023008C0124008C0122008D01FF30210055
:100248008D0023008D0124008D01210095172200C7
:100258009D019E010800640080010131890B30294D
:1002680000347A30210099009A0198010800F400BE
:1002780074084F20080035211721C72008000134D1
:020000040001F9
:04000E00E4F9FFDE34
:00000001FF
