:020000001228C4
:100008007E14803120007F08F2008B1A0B1D0D280A
:10001800642072082000FF007E1009001328F001F8
:10002800F1017E10200057282B2820000D358D0067
:1000380080300D06031D0800F001F00A08002000BA
:100048000D368D000D03031D0800F001080070082F
:10005800003A03191928013A0319232833280800FC
:1000680022008C01FF3021008C00033023008C001B
:1000780024008C0122008D0121008D0123008D01B7
:1000880024008D012100951722009D019E01080082
:1000980021001508C0390738950020009501F101A5
:1000A8000B118B1608006A208B170B1701302000E4
:1000B8008D005D286A30210099009A019801080096
:1000C8000B11710820009500182008005E203420CC
:0400D8004C200800B0
:020000040001F9
:04000E00E4F9FFDE34
:00000001FF
